{
  "address": "0xBa6770A08D1D31Ab24d36d14C4D8E2d4BDA72f21",
  "abi": [
    {
      "inputs": [
        {
          "internalType": "address",
          "name": "_timer",
          "type": "address"
        }
      ],
      "stateMutability": "nonpayable",
      "type": "constructor"
    },
    {
      "anonymous": false,
      "inputs": [
        {
          "indexed": false,
          "internalType": "uint256",
          "name": "lotteryId",
          "type": "uint256"
        },
        {
          "indexed": false,
          "internalType": "uint256",
          "name": "ticketSupply",
          "type": "uint256"
        }
      ],
      "name": "LotteryClosed",
      "type": "event"
    },
    {
      "anonymous": false,
      "inputs": [
        {
          "indexed": false,
          "internalType": "uint256",
          "name": "lotteryId",
          "type": "uint256"
        },
        {
          "indexed": false,
          "internalType": "uint256",
          "name": "ticketSupply",
          "type": "uint256"
        }
      ],
      "name": "LotteryOpened",
      "type": "event"
    },
    {
      "anonymous": false,
      "inputs": [
        {
          "indexed": false,
          "internalType": "uint16",
          "name": "maxValidRange",
          "type": "uint16"
        },
        {
          "indexed": false,
          "internalType": "uint16",
          "name": "powerBallRange",
          "type": "uint16"
        },
        {
          "indexed": false,
          "internalType": "uint256[]",
          "name": "prizeDistribution",
          "type": "uint256[]"
        },
        {
          "indexed": false,
          "internalType": "uint256",
          "name": "startingPrize",
          "type": "uint256"
        },
        {
          "indexed": false,
          "internalType": "uint256",
          "name": "costPerTicket",
          "type": "uint256"
        }
      ],
      "name": "LotterySettingsUpdated",
      "type": "event"
    },
    {
      "anonymous": false,
      "inputs": [
        {
          "indexed": true,
          "internalType": "address",
          "name": "minter",
          "type": "address"
        },
        {
          "indexed": false,
          "internalType": "uint256[]",
          "name": "ticketIDs",
          "type": "uint256[]"
        },
        {
          "indexed": false,
          "internalType": "uint16[]",
          "name": "numbers",
          "type": "uint16[]"
        },
        {
          "indexed": false,
          "internalType": "uint256",
          "name": "pricePaid",
          "type": "uint256"
        }
      ],
      "name": "NewBatchMint",
      "type": "event"
    },
    {
      "anonymous": false,
      "inputs": [
        {
          "indexed": true,
          "internalType": "address",
          "name": "previousOwner",
          "type": "address"
        },
        {
          "indexed": true,
          "internalType": "address",
          "name": "newOwner",
          "type": "address"
        }
      ],
      "name": "OwnershipTransferred",
      "type": "event"
    },
    {
      "anonymous": false,
      "inputs": [
        {
          "indexed": false,
          "internalType": "uint256",
          "name": "lotteryId",
          "type": "uint256"
        },
        {
          "indexed": false,
          "internalType": "bytes32",
          "name": "requestId",
          "type": "bytes32"
        }
      ],
      "name": "RequestNumbers",
      "type": "event"
    },
    {
      "anonymous": false,
      "inputs": [
        {
          "indexed": false,
          "internalType": "uint256[]",
          "name": "numbers",
          "type": "uint256[]"
        }
      ],
      "name": "WinnersDrawn",
      "type": "event"
    },
    {
      "inputs": [],
      "name": "PRECISION",
      "outputs": [
        {
          "internalType": "uint256",
          "name": "",
          "type": "uint256"
        }
      ],
      "stateMutability": "view",
      "type": "function"
    },
    {
      "inputs": [
        {
          "internalType": "uint8",
          "name": "_noOfMatching",
          "type": "uint8"
        },
        {
          "internalType": "uint256",
          "name": "_lotteryId",
          "type": "uint256"
        }
      ],
      "name": "_prizeForMatching",
      "outputs": [
        {
          "internalType": "uint256",
          "name": "prize",
          "type": "uint256"
        }
      ],
      "stateMutability": "view",
      "type": "function"
    },
    {
      "inputs": [
        {
          "internalType": "uint256",
          "name": "_lotteryId",
          "type": "uint256"
        },
        {
          "internalType": "uint8",
          "name": "_numberOfTickets",
          "type": "uint8"
        },
        {
          "internalType": "uint16[]",
          "name": "_chosenNumbersForEachTicket",
          "type": "uint16[]"
        }
      ],
      "name": "batchBuyLottoTicket",
      "outputs": [],
      "stateMutability": "nonpayable",
      "type": "function"
    },
    {
      "inputs": [
        {
          "internalType": "uint256",
          "name": "_lotteryId",
          "type": "uint256"
        },
        {
          "internalType": "uint256[]",
          "name": "_tokeIds",
          "type": "uint256[]"
        }
      ],
      "name": "batchClaimRewards",
      "outputs": [],
      "stateMutability": "nonpayable",
      "type": "function"
    },
    {
      "inputs": [
        {
          "internalType": "uint256",
          "name": "_lotteryId",
          "type": "uint256"
        },
        {
          "internalType": "uint256",
          "name": "_tokenId",
          "type": "uint256"
        }
      ],
      "name": "claimReward",
      "outputs": [],
      "stateMutability": "nonpayable",
      "type": "function"
    },
    {
      "inputs": [],
      "name": "controller_",
      "outputs": [
        {
          "internalType": "address",
          "name": "",
          "type": "address"
        }
      ],
      "stateMutability": "view",
      "type": "function"
    },
    {
      "inputs": [],
      "name": "costPerTicket_",
      "outputs": [
        {
          "internalType": "uint256",
          "name": "",
          "type": "uint256"
        }
      ],
      "stateMutability": "view",
      "type": "function"
    },
    {
      "inputs": [
        {
          "internalType": "uint256",
          "name": "_lotteryId",
          "type": "uint256"
        },
        {
          "internalType": "uint256",
          "name": "_numberOfTickets",
          "type": "uint256"
        }
      ],
      "name": "costToBuyTickets",
      "outputs": [
        {
          "internalType": "uint256",
          "name": "totalCost",
          "type": "uint256"
        }
      ],
      "stateMutability": "view",
      "type": "function"
    },
    {
      "inputs": [],
      "name": "defaultDuration_",
      "outputs": [
        {
          "internalType": "uint256",
          "name": "",
          "type": "uint256"
        }
      ],
      "stateMutability": "view",
      "type": "function"
    },
    {
      "inputs": [
        {
          "internalType": "uint256",
          "name": "_lotteryId",
          "type": "uint256"
        },
        {
          "internalType": "uint256",
          "name": "_seed",
          "type": "uint256"
        }
      ],
      "name": "drawWinningNumbers",
      "outputs": [],
      "stateMutability": "nonpayable",
      "type": "function"
    },
    {
      "inputs": [
        {
          "internalType": "uint256",
          "name": "_lotteryId",
          "type": "uint256"
        }
      ],
      "name": "getBasicLottoInfo",
      "outputs": [
        {
          "components": [
            {
              "internalType": "uint256",
              "name": "lotteryID",
              "type": "uint256"
            },
            {
              "internalType": "enum Lottery.Status",
              "name": "lotteryStatus",
              "type": "uint8"
            },
            {
              "internalType": "uint256",
              "name": "prizePool",
              "type": "uint256"
            },
            {
              "internalType": "uint256",
              "name": "costPerTicket",
              "type": "uint256"
            },
            {
              "internalType": "uint256[]",
              "name": "prizeDistribution",
              "type": "uint256[]"
            },
            {
              "internalType": "uint256",
              "name": "startingTimestamp",
              "type": "uint256"
            },
            {
              "internalType": "uint256",
              "name": "closingTimestamp",
              "type": "uint256"
            },
            {
              "internalType": "uint16[]",
              "name": "winningNumbers",
              "type": "uint16[]"
            },
            {
              "internalType": "uint256[]",
              "name": "winners",
              "type": "uint256[]"
            }
          ],
          "internalType": "struct Lottery.LottoInfo",
          "name": "",
          "type": "tuple"
        }
      ],
      "stateMutability": "view",
      "type": "function"
    },
    {
      "inputs": [],
      "name": "getCurrentLotto",
      "outputs": [
        {
          "components": [
            {
              "internalType": "uint256",
              "name": "lotteryID",
              "type": "uint256"
            },
            {
              "internalType": "enum Lottery.Status",
              "name": "lotteryStatus",
              "type": "uint8"
            },
            {
              "internalType": "uint256",
              "name": "prizePool",
              "type": "uint256"
            },
            {
              "internalType": "uint256",
              "name": "costPerTicket",
              "type": "uint256"
            },
            {
              "internalType": "uint256[]",
              "name": "prizeDistribution",
              "type": "uint256[]"
            },
            {
              "internalType": "uint256",
              "name": "startingTimestamp",
              "type": "uint256"
            },
            {
              "internalType": "uint256",
              "name": "closingTimestamp",
              "type": "uint256"
            },
            {
              "internalType": "uint16[]",
              "name": "winningNumbers",
              "type": "uint16[]"
            },
            {
              "internalType": "uint256[]",
              "name": "winners",
              "type": "uint256[]"
            }
          ],
          "internalType": "struct Lottery.LottoInfo",
          "name": "",
          "type": "tuple"
        }
      ],
      "stateMutability": "view",
      "type": "function"
    },
    {
      "inputs": [],
      "name": "getCurrentPrizes",
      "outputs": [
        {
          "internalType": "uint256[]",
          "name": "prizes",
          "type": "uint256[]"
        }
      ],
      "stateMutability": "view",
      "type": "function"
    },
    {
      "inputs": [],
      "name": "getCurrentTime",
      "outputs": [
        {
          "internalType": "uint256",
          "name": "",
          "type": "uint256"
        }
      ],
      "stateMutability": "view",
      "type": "function"
    },
    {
      "inputs": [],
      "name": "getCurrentTotalPrize",
      "outputs": [
        {
          "internalType": "uint256",
          "name": "totalPrize",
          "type": "uint256"
        }
      ],
      "stateMutability": "view",
      "type": "function"
    },
    {
      "inputs": [],
      "name": "getMaxRange",
      "outputs": [
        {
          "internalType": "uint16",
          "name": "",
          "type": "uint16"
        }
      ],
      "stateMutability": "view",
      "type": "function"
    },
    {
      "inputs": [
        {
          "internalType": "address",
          "name": "_iron",
          "type": "address"
        },
        {
          "internalType": "address",
          "name": "_ticket",
          "type": "address"
        },
        {
          "internalType": "address",
          "name": "_randomNumberGenerator",
          "type": "address"
        },
        {
          "internalType": "address",
          "name": "_prizeReservePool",
          "type": "address"
        },
        {
          "internalType": "address",
          "name": "_taxService",
          "type": "address"
        },
        {
          "internalType": "address",
          "name": "_controller",
          "type": "address"
        }
      ],
      "name": "initialize",
      "outputs": [],
      "stateMutability": "nonpayable",
      "type": "function"
    },
    {
      "inputs": [
        {
          "internalType": "uint256",
          "name": "_startingTime",
          "type": "uint256"
        },
        {
          "internalType": "uint256",
          "name": "_closingTime",
          "type": "uint256"
        }
      ],
      "name": "manualStartLotto",
      "outputs": [
        {
          "internalType": "uint256",
          "name": "",
          "type": "uint256"
        }
      ],
      "stateMutability": "nonpayable",
      "type": "function"
    },
    {
      "inputs": [],
      "name": "manuallyOpenLotto",
      "outputs": [],
      "stateMutability": "nonpayable",
      "type": "function"
    },
    {
      "inputs": [],
      "name": "maxValidRange_",
      "outputs": [
        {
          "internalType": "uint16",
          "name": "",
          "type": "uint16"
        }
      ],
      "stateMutability": "view",
      "type": "function"
    },
    {
      "inputs": [
        {
          "internalType": "uint256",
          "name": "_lotteryId",
          "type": "uint256"
        },
        {
          "internalType": "bytes32",
          "name": "_requestId",
          "type": "bytes32"
        },
        {
          "internalType": "uint256",
          "name": "_randomNumber",
          "type": "uint256"
        }
      ],
      "name": "numbersDrawn",
      "outputs": [],
      "stateMutability": "nonpayable",
      "type": "function"
    },
    {
      "inputs": [],
      "name": "owner",
      "outputs": [
        {
          "internalType": "address",
          "name": "",
          "type": "address"
        }
      ],
      "stateMutability": "view",
      "type": "function"
    },
    {
      "inputs": [],
      "name": "powerBallRange_",
      "outputs": [
        {
          "internalType": "uint16",
          "name": "",
          "type": "uint16"
        }
      ],
      "stateMutability": "view",
      "type": "function"
    },
    {
      "inputs": [
        {
          "internalType": "uint256",
          "name": "",
          "type": "uint256"
        }
      ],
      "name": "prizeDistribution_",
      "outputs": [
        {
          "internalType": "uint256",
          "name": "",
          "type": "uint256"
        }
      ],
      "stateMutability": "view",
      "type": "function"
    },
    {
      "inputs": [],
      "name": "prizeReservePool_",
      "outputs": [
        {
          "internalType": "address",
          "name": "",
          "type": "address"
        }
      ],
      "stateMutability": "view",
      "type": "function"
    },
    {
      "inputs": [],
      "name": "renounceOwnership",
      "outputs": [],
      "stateMutability": "nonpayable",
      "type": "function"
    },
    {
      "inputs": [
        {
          "internalType": "uint256",
          "name": "_lotteryId",
          "type": "uint256"
        },
        {
          "internalType": "uint256",
          "name": "_seed",
          "type": "uint256"
        }
      ],
      "name": "retryDrawWinningNumbers",
      "outputs": [],
      "stateMutability": "nonpayable",
      "type": "function"
    },
    {
      "inputs": [
        {
          "internalType": "address",
          "name": "_controller",
          "type": "address"
        }
      ],
      "name": "setController",
      "outputs": [],
      "stateMutability": "nonpayable",
      "type": "function"
    },
    {
      "inputs": [
        {
          "internalType": "uint256",
          "name": "time",
          "type": "uint256"
        }
      ],
      "name": "setCurrentTime",
      "outputs": [],
      "stateMutability": "nonpayable",
      "type": "function"
    },
    {
      "inputs": [
        {
          "internalType": "address",
          "name": "_prizeReservePool",
          "type": "address"
        }
      ],
      "name": "setPrizeReservePool",
      "outputs": [],
      "stateMutability": "nonpayable",
      "type": "function"
    },
    {
      "inputs": [
        {
          "internalType": "address",
          "name": "_randomGenerator",
          "type": "address"
        }
      ],
      "name": "setRandomGenerator",
      "outputs": [],
      "stateMutability": "nonpayable",
      "type": "function"
    },
    {
      "inputs": [
        {
          "internalType": "uint256",
          "name": "_taxRate",
          "type": "uint256"
        }
      ],
      "name": "setTaxRate",
      "outputs": [],
      "stateMutability": "nonpayable",
      "type": "function"
    },
    {
      "inputs": [
        {
          "internalType": "address",
          "name": "_taxService",
          "type": "address"
        }
      ],
      "name": "setTaxService",
      "outputs": [],
      "stateMutability": "nonpayable",
      "type": "function"
    },
    {
      "inputs": [
        {
          "internalType": "address",
          "name": "_ticket",
          "type": "address"
        }
      ],
      "name": "setTicket",
      "outputs": [],
      "stateMutability": "nonpayable",
      "type": "function"
    },
    {
      "inputs": [
        {
          "internalType": "address",
          "name": "_zap",
          "type": "address"
        }
      ],
      "name": "setZapFunction",
      "outputs": [],
      "stateMutability": "nonpayable",
      "type": "function"
    },
    {
      "inputs": [],
      "name": "sizeOfLottery_",
      "outputs": [
        {
          "internalType": "uint8",
          "name": "",
          "type": "uint8"
        }
      ],
      "stateMutability": "view",
      "type": "function"
    },
    {
      "inputs": [],
      "name": "startingPrize_",
      "outputs": [
        {
          "internalType": "uint256",
          "name": "",
          "type": "uint256"
        }
      ],
      "stateMutability": "view",
      "type": "function"
    },
    {
      "inputs": [],
      "name": "taxRate_",
      "outputs": [
        {
          "internalType": "uint256",
          "name": "",
          "type": "uint256"
        }
      ],
      "stateMutability": "view",
      "type": "function"
    },
    {
      "inputs": [],
      "name": "timerAddress",
      "outputs": [
        {
          "internalType": "address",
          "name": "",
          "type": "address"
        }
      ],
      "stateMutability": "view",
      "type": "function"
    },
    {
      "inputs": [
        {
          "internalType": "address",
          "name": "newOwner",
          "type": "address"
        }
      ],
      "name": "transferOwnership",
      "outputs": [],
      "stateMutability": "nonpayable",
      "type": "function"
    },
    {
      "inputs": [],
      "name": "unclaimedPrize_",
      "outputs": [
        {
          "internalType": "uint256",
          "name": "",
          "type": "uint256"
        }
      ],
      "stateMutability": "view",
      "type": "function"
    },
    {
      "inputs": [
        {
          "internalType": "uint256",
          "name": "_duration",
          "type": "uint256"
        }
      ],
      "name": "updateDefaultDuration",
      "outputs": [],
      "stateMutability": "nonpayable",
      "type": "function"
    },
    {
      "inputs": [
        {
          "internalType": "uint16",
          "name": "_maxValidRange",
          "type": "uint16"
        },
        {
          "internalType": "uint16",
          "name": "_powerBallRange",
          "type": "uint16"
        },
        {
          "internalType": "uint256[]",
          "name": "_prizeDistribution",
          "type": "uint256[]"
        },
        {
          "internalType": "uint256",
          "name": "_costPerTicket",
          "type": "uint256"
        },
        {
          "internalType": "uint256",
          "name": "_startingPrize",
          "type": "uint256"
        }
      ],
      "name": "updateLottoSettings",
      "outputs": [],
      "stateMutability": "nonpayable",
      "type": "function"
    },
    {
      "inputs": [
        {
          "internalType": "address",
          "name": "newLottoContract",
          "type": "address"
        }
      ],
      "name": "upgradeNewLotoContract",
      "outputs": [],
      "stateMutability": "nonpayable",
      "type": "function"
    },
    {
      "inputs": [],
      "name": "upgraded_",
      "outputs": [
        {
          "internalType": "bool",
          "name": "",
          "type": "bool"
        }
      ],
      "stateMutability": "view",
      "type": "function"
    },
    {
      "inputs": [
        {
          "internalType": "uint256",
          "name": "_lotteryId",
          "type": "uint256"
        },
        {
          "internalType": "address",
          "name": "_receiver",
          "type": "address"
        },
        {
          "internalType": "uint8",
          "name": "_numberOfTickets",
          "type": "uint8"
        },
        {
          "internalType": "uint16[]",
          "name": "_chosenNumbersForEachTicket",
          "type": "uint16[]"
        }
      ],
      "name": "zapBatchBuyLottoTicket",
      "outputs": [],
      "stateMutability": "nonpayable",
      "type": "function"
    },
    {
      "inputs": [],
      "name": "zap_",
      "outputs": [
        {
          "internalType": "address",
          "name": "",
          "type": "address"
        }
      ],
      "stateMutability": "view",
      "type": "function"
    }
  ],
  "transactionHash": "0x56ce78afd234a47c5107092b6608d2d29ba71a7f9459f112524d86c73f787df0",
  "args": [
    "0x0000000000000000000000000000000000000000"
  ],
  "solcInputHash": "656fce16732d1ea41673c6341e4dd2c2",
  "bytecode": "0x6080604052620151806011556012805460ff191690553480156200002257600080fd5b50604051620054c9380380620054c98339810160408190526200004591620000ad565b600080546001600160a01b031916339081178255604051839282917f8be0079c531659141344cd1fd0a4f28419497f9722a3daafe3b4186f6b6457e0908290a350600180546001600160a01b0319166001600160a01b039290921691909117905550620000dd565b600060208284031215620000bf578081fd5b81516001600160a01b0381168114620000d6578182fd5b9392505050565b6153dc80620000ed6000396000f3fe608060405234801561001057600080fd5b50600436106102955760003560e01c80638788bc2911610167578063c000bc60116100ce578063e59bbab511610087578063e59bbab51461059f578063e5a92f91146105b2578063e94594e7146105bb578063e97fc162146105ce578063f2fde38b146105e1578063f7468d1f146105f457600080fd5b8063c000bc601461052d578063c6d69a3014610540578063c8cfd90214610553578063cc2a9a5b14610566578063da47675514610579578063dfcbb0641461058c57600080fd5b80639dae207d116101205780639dae207d146104e1578063a624aa1b146104f4578063a75ab57114610509578063aaf5eb6814610512578063afdcc28b1461051c578063bcfe282c1461052557600080fd5b80638788bc29146104795780638da5cb5b1461048e57806392eefe9b1461049f57806393d07568146104b257806396476fa9146104c55780639853bcb6146104d857600080fd5b80633aed3e141161020b578063621bc669116101c4578063621bc6691461041b5780636a8dfd3a1461042e578063715018a61461044357806376674b8f1461044b578063795ec5b91461045e57806386bb8f371461046657600080fd5b80633aed3e141461038a5780633de3621f1461039d5780633f343b2c146103ba5780634bc19fee146103e25780634f7d93db146103f55780635b99a4d61461040857600080fd5b80631b2104b71161025d5780631b2104b71461030b5780631b9a9afd146103365780631c39c38d146103495780631c65c78b1461035c57806322f8e5661461036f57806329cb924d1461038257600080fd5b8063075dc4151461029a5780630dabc1d4146102b957806318fb9c61146102ce5780631a0a916f146102ef5780631ad3548214610302575b600080fd5b6102a2600481565b60405160ff90911681526020015b60405180910390f35b6102cc6102c7366004614768565b610607565b005b6102e16102dc366004614768565b6107ef565b6040519081526020016102b0565b6102cc6102fd3660046143e3565b61082f565b6102e1600c5481565b600a5461031e906001600160a01b031681565b6040516001600160a01b0390911681526020016102b0565b6102cc6103443660046145fa565b6108a1565b60015461031e906001600160a01b031681565b6102cc61036a3660046143e3565b610b27565b6102cc61037d36600461466e565b610b99565b6102e1610c10565b60095461031e906001600160a01b031681565b6012546103aa9060ff1681565b60405190151581526020016102b0565b600a546103cf90600160b01b900461ffff1681565b60405161ffff90911681526020016102b0565b6102cc6103f03660046143e3565b610cb4565b6102e1610403366004614768565b610d26565b600f5461031e906001600160a01b031681565b6102cc6104293660046143e3565b610d4a565b610436610dbc565b6040516102b09190614bc5565b6102cc610fb5565b6102cc6104593660046146f4565b611029565b6102e16115c2565b6102cc610474366004614768565b61164c565b610481611a11565b6040516102b09190614933565b6000546001600160a01b031661031e565b6102cc6104ad3660046143e3565b611b41565b6102cc6104c0366004614686565b611bb3565b6102cc6104d3366004614768565b611f21565b6102e160085481565b6102e16104ef3660046147e0565b61205d565b600a546103cf90600160a01b900461ffff1681565b6102e1600b5481565b6102e1620f424081565b6102e160115481565b6102cc61217e565b6102cc61053b36600461466e565b612283565b6102cc61054e36600461466e565b6122f9565b6102cc610561366004614789565b61237b565b6102cc61057436600461441b565b6126cc565b61043661058736600461466e565b61289c565b6102cc61059a3660046143e3565b612a72565b600a54600160a01b900461ffff166103cf565b6102e1600e5481565b6102e16105c936600461466e565b612b16565b6102cc6105dc36600461473d565b612b37565b6102cc6105ef3660046143e3565b612f1a565b6102cc6106023660046143e3565b613004565b6009546001600160a01b0316331461063a5760405162461bcd60e51b8152600401610631906149e8565b60405180910390fd5b60125460ff161561065d5760405162461bcd60e51b815260040161063190614b8e565b6000828152601060205260409020610673610c10565b816006015411156106965760405162461bcd60e51b815260040161063190614b45565b60018082015460ff1660038111156106be57634e487b7160e01b600052602160045260246000fd5b1461070b5760405162461bcd60e51b815260206004820181905260248201527f4c6f747465727920537461746520696e636f727265637420666f7220647261776044820152606401610631565b60018101805460ff191660021790556107226115c2565b6002820155600480546040516337347e0560e11b8152918201859052602482018490526001600160a01b031690636e68fc0a906044015b602060405180830381600087803b15801561077357600080fd5b505af1158015610787573d6000803e3d6000fd5b505050506040513d601f19601f820116820180604052508101906107ab91906145e2565b60068190556040805185815260208101929092527ff8cdf8355a0f31bbad8998a631f5a75dcb3e475a010b34a111ed105fe88e751a910160405180910390a1505050565b6009546000906001600160a01b0316331461081c5760405162461bcd60e51b8152600401610631906149e8565b6108268383613076565b90505b92915050565b6000546001600160a01b031633146108595760405162461bcd60e51b815260040161063190614ae2565b6001600160a01b03811661087f5760405162461bcd60e51b815260040161063190614aab565b600a80546001600160a01b0319166001600160a01b0392909216919091179055565b6000546001600160a01b031633146108cb5760405162461bcd60e51b815260040161063190614ae2565b60048661ffff16101561092a5760405162461bcd60e51b815260206004820152602160248201527f52616e6765206f66206e756d626572206d75737420626520342061746c6561736044820152601d60fa1b6064820152608401610631565b61ffff851661097b5760405162461bcd60e51b815260206004820152601f60248201527f506f776572206e756d6265722072616e67652063616e206e6f742062652030006044820152606401610631565b801580159061098957508115155b6109d55760405162461bcd60e51b815260206004820152601960248201527f5072697a65206f7220636f73742063616e6e6f742062652030000000000000006044820152606401610631565b6000805b84811015610a2757858582818110610a0157634e487b7160e01b600052603260045260246000fd5b9050602002013582610a1391906150ce565b915080610a1f816152ec565b9150506109d9565b50620f42408114610a7a5760405162461bcd60e51b815260206004820152601e60248201527f5072697a6520646973747269627574696f6e206973206e6f74203130302500006044820152606401610631565b600a805461ffff888116600160b01b0261ffff60b01b19918b16600160a01b029190911663ffffffff60a01b1990921691909117179055610abd600d86866141f8565b50600b829055600c839055600a546040517f067550c482e59ec2971e38a6fceb771fc31d75786daa4dbcc378a4ce3f2fbd6391610b169161ffff600160a01b8304811692600160b01b90041690600d9087908990614c65565b60405180910390a150505050505050565b6000546001600160a01b03163314610b515760405162461bcd60e51b815260040161063190614ae2565b6001600160a01b038116610b775760405162461bcd60e51b815260040161063190614aab565b600380546001600160a01b0319166001600160a01b0392909216919091179055565b6001546001600160a01b0316610bae57600080fd5b60015460405163117c72b360e11b8152600481018390526001600160a01b03909116906322f8e566906024015b600060405180830381600087803b158015610bf557600080fd5b505af1158015610c09573d6000803e3d6000fd5b5050505050565b6001546000906001600160a01b031615610caf57600160009054906101000a90046001600160a01b03166001600160a01b03166329cb924d6040518163ffffffff1660e01b815260040160206040518083038186803b158015610c7257600080fd5b505afa158015610c86573d6000803e3d6000fd5b505050506040513d601f19601f82011682018060405250810190610caa91906145e2565b905090565b504290565b6000546001600160a01b03163314610cde5760405162461bcd60e51b815260040161063190614ae2565b6001600160a01b038116610d045760405162461bcd60e51b815260040161063190614aab565b600480546001600160a01b0319166001600160a01b0392909216919091179055565b600082815260106020526040812060030154610d42838261520d565b949350505050565b6000546001600160a01b03163314610d745760405162461bcd60e51b815260040161063190614ae2565b6001600160a01b038116610d9a5760405162461bcd60e51b815260040161063190614aab565b600f80546001600160a01b0319166001600160a01b0392909216919091179055565b610dc4614243565b600060075411610de65760405162461bcd60e51b815260040161063190614a7f565b60075460009081526010602090815260409182902082516101208101909352805483526001810154909183019060ff166003811115610e3557634e487b7160e01b600052602160045260246000fd5b6003811115610e5457634e487b7160e01b600052602160045260246000fd5b8152602001600282015481526020016003820154815260200160048201805480602002602001604051908101604052809291908181526020018280548015610ebb57602002820191906000526020600020905b815481526020019060010190808311610ea7575b50505050508152602001600582015481526020016006820154815260200160078201805480602002602001604051908101604052809291908181526020018280548015610f4f57602002820191906000526020600020906000905b82829054906101000a900461ffff1661ffff1681526020019060020190602082600101049283019260010382029150808411610f165790505b5050505050815260200160088201805480602002602001604051908101604052809291908181526020018280548015610fa757602002820191906000526020600020905b815481526020019060010190808311610f93575b505050505081525050905090565b6000546001600160a01b03163314610fdf5760405162461bcd60e51b815260040161063190614ae2565b600080546040516001600160a01b03909116907f8be0079c531659141344cd1fd0a4f28419497f9722a3daafe3b4186f6b6457e0908390a3600080546001600160a01b0319169055565b333b156110485760405162461bcd60e51b815260040161063190614b17565b3332146110675760405162461bcd60e51b8152600401610631906149b1565b60328111156110b05760405162461bcd60e51b8152602060048201526015602482015274426174636820636c61696d20746f6f206c6172676560581b6044820152606401610631565b6110b8610c10565b60008481526010602052604090206006015411156111115760405162461bcd60e51b8152602060048201526016602482015275576169742074696c6c20656e6420746f20636c61696d60501b6044820152606401610631565b600360008481526010602052604090206001015460ff16600381111561114757634e487b7160e01b600052602160045260246000fd5b146111945760405162461bcd60e51b815260206004820152601e60248201527f57696e6e696e67204e756d62657273206e6f742063686f73656e2079657400006044820152606401610631565b6000805b828110156115b15760035433906001600160a01b0316639d7553678686858181106111d357634e487b7160e01b600052603260045260246000fd5b905060200201356040518263ffffffff1660e01b81526004016111f891815260200190565b60206040518083038186803b15801561121057600080fd5b505afa158015611224573d6000803e3d6000fd5b505050506040513d601f19601f8201168201806040525081019061124891906143ff565b6001600160a01b0316146112995760405162461bcd60e51b81526020600482015260186024820152774f6e6c7920746865206f776e65722063616e20636c61696d60401b6044820152606401610631565b6003546001600160a01b0316639191a7ea8585848181106112ca57634e487b7160e01b600052603260045260246000fd5b905060200201356040518263ffffffff1660e01b81526004016112ef91815260200190565b60206040518083038186803b15801561130757600080fd5b505afa15801561131b573d6000803e3d6000fd5b505050506040513d601f19601f8201168201806040525081019061133f91906145c2565b156113495761159f565b6003546001600160a01b031663ed06a74085858481811061137a57634e487b7160e01b600052603260045260246000fd5b90506020020135876040518363ffffffff1660e01b81526004016113a8929190918252602082015260400190565b602060405180830381600087803b1580156113c257600080fd5b505af11580156113d6573d6000803e3d6000fd5b505050506040513d601f19601f820116820180604052508101906113fa91906145c2565b6114465760405162461bcd60e51b815260206004820152601a60248201527f4e756d6265727320666f72207469636b657420696e76616c69640000000000006044820152606401610631565b600354600090611580906001600160a01b0316639839eafd87878681811061147e57634e487b7160e01b600052603260045260246000fd5b905060200201356040518263ffffffff1660e01b81526004016114a391815260200190565b60006040518083038186803b1580156114bb57600080fd5b505afa1580156114cf573d6000803e3d6000fd5b505050506040513d6000823e601f3d908101601f191682016040526114f7919081019061449c565b6000888152601060209081526040918290206007018054835181840281018401909452808452909183018282801561157657602002820191906000526020600020906000905b82829054906101000a900461ffff1661ffff168152602001906002019060208260010104928301926001038202915080841161153d5790505b505050505061354c565b9050600061158e828861205d565b905061159a81856150ce565b935050505b806115a9816152ec565b915050611198565b506115bc33826136a1565b50505050565b6008546002546040516370a0823160e01b8152306004820152600092916001600160a01b0316906370a082319060240160206040518083038186803b15801561160a57600080fd5b505afa15801561161e573d6000803e3d6000fd5b505050506040513d601f19601f8201168201806040525081019061164291906145e2565b610caa919061524d565b333b1561166b5760405162461bcd60e51b815260040161063190614b17565b33321461168a5760405162461bcd60e51b8152600401610631906149b1565b611692610c10565b60008381526010602052604090206006015411156116eb5760405162461bcd60e51b8152602060048201526016602482015275576169742074696c6c20656e6420746f20636c61696d60501b6044820152606401610631565b600360008381526010602052604090206001015460ff16600381111561172157634e487b7160e01b600052602160045260246000fd5b1461176e5760405162461bcd60e51b815260206004820152601e60248201527f57696e6e696e67204e756d62657273206e6f742063686f73656e2079657400006044820152606401610631565b600354604051639d75536760e01b81526004810183905233916001600160a01b031690639d7553679060240160206040518083038186803b1580156117b257600080fd5b505afa1580156117c6573d6000803e3d6000fd5b505050506040513d601f19601f820116820180604052508101906117ea91906143ff565b6001600160a01b03161461183b5760405162461bcd60e51b81526020600482015260186024820152774f6e6c7920746865206f776e65722063616e20636c61696d60401b6044820152606401610631565b6003546040516303b41a9d60e61b815260048101839052602481018490526001600160a01b039091169063ed06a74090604401602060405180830381600087803b15801561188857600080fd5b505af115801561189c573d6000803e3d6000fd5b505050506040513d601f19601f820116820180604052508101906118c091906145c2565b61190c5760405162461bcd60e51b815260206004820152601a60248201527f4e756d6265727320666f72207469636b657420696e76616c69640000000000006044820152606401610631565b600354604051639839eafd60e01b8152600481018390526000916119f7916001600160a01b0390911690639839eafd9060240160006040518083038186803b15801561195757600080fd5b505afa15801561196b573d6000803e3d6000fd5b505050506040513d6000823e601f3d908101601f19168201604052611993919081019061449c565b60008581526010602090815260409182902060070180548351818402810184019094528084529091830182828015611576576000918252602091829020805461ffff16845290820283019290916002910180841161153d579050505050505061354c565b90506000611a05828561205d565b90506115bc33826136a1565b6060600060075411611a355760405162461bcd60e51b815260040161063190614a7f565b600754600090815260106020526040902060048101546001600160401b03811115611a7057634e487b7160e01b600052604160045260246000fd5b604051908082528060200260200182016040528015611a99578160200160208202803683370190505b5091506000611aa66115c2565b905060005b6004830154811015611b3b57620f4240836004018281548110611ade57634e487b7160e01b600052603260045260246000fd5b906000526020600020015483611af4919061520d565b611afe919061510b565b848281518110611b1e57634e487b7160e01b600052603260045260246000fd5b602090810291909101015280611b33816152ec565b915050611aab565b50505090565b6000546001600160a01b03163314611b6b5760405162461bcd60e51b815260040161063190614ae2565b6001600160a01b038116611b915760405162461bcd60e51b815260040161063190614aab565b600980546001600160a01b0319166001600160a01b0392909216919091179055565b600a546001600160a01b03163314611c0d5760405162461bcd60e51b815260206004820152601a60248201527f4f6e6c79207a61702066756e6374696f6e2063616e2063616c6c0000000000006044820152606401610631565b60125460ff1615611c305760405162461bcd60e51b815260040161063190614b8e565b6000611c3a610c10565b6000878152601060205260409020600581015491925090821015611c705760405162461bcd60e51b815260040161063190614a11565b80600601548210611c935760405162461bcd60e51b815260040161063190614a48565b6000600182015460ff166003811115611cbc57634e487b7160e01b600052602160045260246000fd5b1415611ce557611cca610c10565b816005015411611ce5576001818101805460ff191690911790555b60018082015460ff166003811115611d0d57634e487b7160e01b600052602160045260246000fd5b14611d5a5760405162461bcd60e51b815260206004820152601d60248201527f4c6f7474657279206e6f7420696e20737461746520666f72206d696e740000006044820152606401610631565b611d97858585808060200260200160405190810160405280939291908181526020018383602002808284376000920191909152506136c992505050565b604051634f7d93db60e01b81526004810188905260ff861660248201526000903090634f7d93db9060440160206040518083038186803b158015611dda57600080fd5b505afa158015611dee573d6000803e3d6000fd5b505050506040513d601f19601f82011682018060405250810190611e1291906145e2565b600354600a5460405163dad97f0960e01b81529293506000926001600160a01b039092169163dad97f0991611e5f918c918e918d91600160a01b900461ffff16908d908d906004016148ec565b600060405180830381600087803b158015611e7957600080fd5b505af1158015611e8d573d6000803e3d6000fd5b505050506040513d6000823e601f3d908101601f19168201604052611eb5919081019061453c565b9050876001600160a01b03167f974e689131c5193e06c220e7ac3790b09bf22516da5ecd32834e19fb8a8299ed82888886604051611ef69493929190614946565b60405180910390a2600254611f16906001600160a01b0316333085613a2a565b505050505050505050565b6009546001600160a01b03163314611f4b5760405162461bcd60e51b8152600401610631906149e8565b60125460ff1615611f6e5760405162461bcd60e51b815260040161063190614b8e565b6000828152601060205260409020611f84610c10565b81600601541115611fa75760405162461bcd60e51b815260040161063190614b45565b6002600182015460ff166003811115611fd057634e487b7160e01b600052602160045260246000fd5b146120275760405162461bcd60e51b815260206004820152602160248201527f4c6f747465727920537461746520696e636f727265637420666f7220726574726044820152607960f81b6064820152608401610631565b600480546040516337347e0560e11b8152918201859052602482018490526001600160a01b031690636e68fc0a90604401610759565b600060ff83161561082957600083612077600460016150e6565b6120819190615264565b60ff16905060006010600085815260200190815260200160002060040182815481106120bd57634e487b7160e01b600052603260045260246000fd5b90600052602060002001549050600060106000868152602001908152602001600020600801838154811061210157634e487b7160e01b600052603260045260246000fd5b906000526020600020015490506000811115612175576121256002620f4240615162565b81600e54620f4240612137919061524d565b60008881526010602052604090206002015461215490869061520d565b61215e919061520d565b612168919061510b565b612172919061510b565b93505b50505092915050565b6009546001600160a01b031633146121a85760405162461bcd60e51b8152600401610631906149e8565b6000600754116121ca5760405162461bcd60e51b815260040161063190614a7f565b6007546000908152601060205260408120906121e4610c10565b9050816005015481101561220a5760405162461bcd60e51b815260040161063190614a11565b8160060154811061222d5760405162461bcd60e51b815260040161063190614a48565b6000600183015460ff16600381111561225657634e487b7160e01b600052602160045260246000fd5b141561227f57612264610c10565b82600501541161227f576001828101805460ff191690911790555b5050565b6000546001600160a01b031633146122ad5760405162461bcd60e51b815260040161063190614ae2565b600081116122f45760405162461bcd60e51b815260206004820152601460248201527304475726174696f6e2063616e6e6f7420626520360641b6044820152606401610631565b601155565b6000546001600160a01b031633146123235760405162461bcd60e51b815260040161063190614ae2565b620f42408111156123765760405162461bcd60e51b815260206004820152601a60248201527f746f74616c206d757374206c6f776572207468616e20313030250000000000006044820152606401610631565b600e55565b333b1561239a5760405162461bcd60e51b815260040161063190614b17565b3332146123b95760405162461bcd60e51b8152600401610631906149b1565b60125460ff16156123dc5760405162461bcd60e51b815260040161063190614b8e565b60006123e6610c10565b600086815260106020526040902060058101549192509082101561241c5760405162461bcd60e51b815260040161063190614a11565b8060060154821061243f5760405162461bcd60e51b815260040161063190614a48565b6000600182015460ff16600381111561246857634e487b7160e01b600052602160045260246000fd5b141561249157612476610c10565b816005015411612491576001818101805460ff191690911790555b60018082015460ff1660038111156124b957634e487b7160e01b600052602160045260246000fd5b146125065760405162461bcd60e51b815260206004820152601d60248201527f4c6f7474657279206e6f7420696e20737461746520666f72206d696e740000006044820152606401610631565b612543858585808060200260200160405190810160405280939291908181526020018383602002808284376000920191909152506136c992505050565b604051634f7d93db60e01b81526004810187905260ff861660248201526000903090634f7d93db9060440160206040518083038186803b15801561258657600080fd5b505afa15801561259a573d6000803e3d6000fd5b505050506040513d601f19601f820116820180604052508101906125be91906145e2565b600354600a5460405163dad97f0960e01b81529293506000926001600160a01b039092169163dad97f099161260b9133918d918d91600160a01b900461ffff16908d908d906004016148ec565b600060405180830381600087803b15801561262557600080fd5b505af1158015612639573d6000803e3d6000fd5b505050506040513d6000823e601f3d908101601f19168201604052612661919081019061453c565b9050336001600160a01b03167f974e689131c5193e06c220e7ac3790b09bf22516da5ecd32834e19fb8a8299ed828888866040516126a29493929190614946565b60405180910390a26002546126c2906001600160a01b0316333085613a2a565b5050505050505050565b600054600160a81b900460ff16806126ee5750600054600160a01b900460ff16155b6127515760405162461bcd60e51b815260206004820152602e60248201527f496e697469616c697a61626c653a20636f6e747261637420697320616c72656160448201526d191e481a5b9a5d1a585b1a5e995960921b6064820152608401610631565b600054600160a81b900460ff1615801561277b576000805461ffff60a01b191661010160a01b1790555b6000546001600160a01b031633146127a55760405162461bcd60e51b815260040161063190614ae2565b6001600160a01b038616158015906127c557506001600160a01b03851615155b80156127d957506001600160a01b03841615155b80156127ed57506001600160a01b03831615155b801561280157506001600160a01b03871615155b61281d5760405162461bcd60e51b815260040161063190614aab565b600280546001600160a01b03199081166001600160a01b038a811691909117909255600380548216898416179055600480548216888416179055600f80548216878416179055600580548216868416179055600980549091169184169190911790558015612893576000805460ff60a81b191690555b50505050505050565b6128a4614243565b60008281526010602090815260409182902082516101208101909352805483526001810154909183019060ff1660038111156128f057634e487b7160e01b600052602160045260246000fd5b600381111561290f57634e487b7160e01b600052602160045260246000fd5b815260200160028201548152602001600382015481526020016004820180548060200260200160405190810160405280929190818152602001828054801561297657602002820191906000526020600020905b815481526020019060010190808311612962575b50505050508152602001600582015481526020016006820154815260200160078201805480602002602001604051908101604052809291908181526020018280548015612a0a57602002820191906000526020600020906000905b82829054906101000a900461ffff1661ffff16815260200190600201906020826001010492830192600103820291508084116129d15790505b5050505050815260200160088201805480602002602001604051908101604052809291908181526020018280548015612a6257602002820191906000526020600020905b815481526020019060010190808311612a4e575b5050505050815250509050919050565b6000546001600160a01b03163314612a9c5760405162461bcd60e51b815260040161063190614ae2565b6001600160a01b038116612ae55760405162461bcd60e51b815260206004820152601060248201526f125b9d985b1a590818dbdb9d1c9858dd60821b6044820152606401610631565b6000612aef6115c2565b6012805460ff1916600117905560025490915061227f906001600160a01b03168383613a95565b600d8181548110612b2657600080fd5b600091825260209091200154905081565b6004546001600160a01b03163314612b895760405162461bcd60e51b815260206004820152601560248201527427b7363c903930b73237b69033b2b732b930ba37b960591b6044820152606401610631565b60125460ff1615612bac5760405162461bcd60e51b815260040161063190614b8e565b60008381526010602052604090206002600182015460ff166003811115612be357634e487b7160e01b600052602160045260246000fd5b14612c255760405162461bcd60e51b8152602060048201526012602482015271111c985dc81b9d5b58995c9cc8199a5c9cdd60721b6044820152606401610631565b826006541415612e5457612c3882613ac5565b8051612c4e916007840191602090910190614290565b50600354600a546040516342c9851760e11b81526000926001600160a01b0316916385930a2e91612c95918991600160a01b90910461ffff16906007880190600401614ccf565b60006040518083038186803b158015612cad57600080fd5b505afa158015612cc1573d6000803e3d6000fd5b505050506040513d6000823e601f3d908101601f19168201604052612ce9919081019061453c565b60018301805460ff1916600317905590506000805b6004840154811015612de157828181518110612d2a57634e487b7160e01b600052603260045260246000fd5b6020026020010151846008018281548110612d5557634e487b7160e01b600052603260045260246000fd5b90600052602060002001819055506000838281518110612d8557634e487b7160e01b600052603260045260246000fd5b60200260200101511115612dcf57836004018181548110612db657634e487b7160e01b600052603260045260246000fd5b906000526020600020015482612dcc91906150ce565b91505b80612dd9816152ec565b915050612cfe565b506000620f424082612df16115c2565b612dfb919061520d565b612e05919061510b565b90508015612e50576000620f4240600e5483612e21919061520d565b612e2b919061510b565b90506000612e39828461524d565b9050612e4481613e08565b612e4d82613e1c565b50505b5050505b7f222f4196142d697de78db701f612253db29adeea22a556e89924693a1cbd297e84600360009054906101000a90046001600160a01b03166001600160a01b031663c4e41b226040518163ffffffff1660e01b815260040160206040518083038186803b158015612ec457600080fd5b505afa158015612ed8573d6000803e3d6000fd5b505050506040513d601f19601f82011682018060405250810190612efc91906145e2565b6040805192835260208301919091520160405180910390a150505050565b6000546001600160a01b03163314612f445760405162461bcd60e51b815260040161063190614ae2565b6001600160a01b038116612fa95760405162461bcd60e51b815260206004820152602660248201527f4f776e61626c653a206e6577206f776e657220697320746865207a65726f206160448201526564647265737360d01b6064820152608401610631565b600080546040516001600160a01b03808516939216917f8be0079c531659141344cd1fd0a4f28419497f9722a3daafe3b4186f6b6457e091a3600080546001600160a01b0319166001600160a01b0392909216919091179055565b6000546001600160a01b0316331461302e5760405162461bcd60e51b815260040161063190614ae2565b6001600160a01b0381166130545760405162461bcd60e51b815260040161063190614aab565b600580546001600160a01b0319166001600160a01b0392909216919091179055565b60125460009060ff161561309c5760405162461bcd60e51b815260040161063190614b8e565b82158015906130aa57508183105b6130f65760405162461bcd60e51b815260206004820152601e60248201527f54696d657374616d707320666f72206c6f747465727920696e76616c696400006044820152606401610631565b600754158061313b5750600360075460009081526010602052604090206001015460ff16600381111561313957634e487b7160e01b600052602160045260246000fd5b145b6131875760405162461bcd60e51b815260206004820181905260248201527f63757272656e74206c6f7474657279206973206e6f7420636f6d706c657465646044820152606401610631565b6007546131959060016150ce565b6007819055905060006131aa600460016150e6565b60ff166001600160401b038111156131d257634e487b7160e01b600052604160045260246000fd5b6040519080825280602002602001820160405280156131fb578160200160208202803683370190505b50600d549091506000906001600160401b0381111561322a57634e487b7160e01b600052604160045260246000fd5b604051908082528060200260200182016040528015613253578160200160208202803683370190505b5090506000613260610c10565b86111561326f57506000613273565b5060015b600b5461327e6115c2565b10156132fb57600f546001600160a01b031663ca1d209d61329d6115c2565b600b546132aa919061524d565b6040518263ffffffff1660e01b81526004016132c891815260200190565b600060405180830381600087803b1580156132e257600080fd5b505af11580156132f6573d6000803e3d6000fd5b505050505b600060405180610120016040528086815260200183600381111561332f57634e487b7160e01b600052602160045260246000fd5b8152602001600b548152602001600c548152602001600d80548060200260200160405190810160405280929190818152602001828054801561339057602002820191906000526020600020905b81548152602001906001019080831161337c575b5050505050815260200188815260200187815260200185815260200184815250905080601060008781526020019081526020016000206000820151816000015560208201518160010160006101000a81548160ff0219169083600381111561340857634e487b7160e01b600052602160045260246000fd5b021790555060408201516002820155606082015160038201556080820151805161343c916004840191602090910190614334565b5060a0820151600582015560c0820151600682015560e0820151805161346c916007840191602090910190614290565b506101008201518051613489916008840191602090910190614334565b5050600354604080516362720d9160e11b815290517fc13b64098dba6f1b221547b6e972533af47812e37968a7abbff8c0e60ff58cba935088926001600160a01b03169163c4e41b22916004808301926020929190829003018186803b1580156134f257600080fd5b505afa158015613506573d6000803e3d6000fd5b505050506040513d601f19601f8201168201806040525081019061352a91906145e2565b6040805192835260208301919091520160405180910390a15050505092915050565b6000805b6001835161355e919061524d565b81101561360e5760005b60018551613576919061524d565b8110156135fb5783818151811061359d57634e487b7160e01b600052603260045260246000fd5b602002602001015161ffff168583815181106135c957634e487b7160e01b600052603260045260246000fd5b602002602001015161ffff1614156135e9576135e66001846150e6565b92505b806135f3816152ec565b915050613568565b5080613606816152ec565b915050613550565b5060ff811660041480156136915750826001845161362c919061524d565b8151811061364a57634e487b7160e01b600052603260045260246000fd5b602002602001015161ffff168260018451613665919061524d565b8151811061368357634e487b7160e01b600052603260045260246000fd5b602002602001015161ffff16145b15610829576108266001826150e6565b806008546136af919061524d565b60085560025461227f906001600160a01b03168383613a95565b60328260ff1611156137145760405162461bcd60e51b81526020600482015260146024820152734261746368206d696e7420746f6f206c6172676560601b6044820152606401610631565b613720600460016150e6565b61372a908361522c565b60ff168151146137755760405162461bcd60e51b8152602060048201526016602482015275496e76616c69642063686f73656e206e756d6265727360501b6044820152606401610631565b60005b8151811015613a2557600061378f600460016150e6565b61379c9060ff1683615328565b905060048114156138725760008383815181106137c957634e487b7160e01b600052603260045260246000fd5b602002602001015161ffff161180156138215750600a60169054906101000a900461ffff1661ffff1683838151811061381257634e487b7160e01b600052603260045260246000fd5b602002602001015161ffff1611155b61386d5760405162461bcd60e51b815260206004820152601a60248201527f6f7574206f662072616e67653a20706f776572206e756d6265720000000000006044820152606401610631565b61392f565b600083838151811061389457634e487b7160e01b600052603260045260246000fd5b602002602001015161ffff161180156138ec5750600a60149054906101000a900461ffff1661ffff168383815181106138dd57634e487b7160e01b600052603260045260246000fd5b602002602001015161ffff1611155b61392f5760405162461bcd60e51b815260206004820152601460248201527337baba1037b3103930b733b29d10373ab6b132b960611b6044820152606401610631565b600081118015613940575060048114155b15613a12576000613951828461524d565b90505b61395f60018461524d565b8111613a105783818151811061398557634e487b7160e01b600052603260045260246000fd5b602002602001015161ffff168484815181106139b157634e487b7160e01b600052603260045260246000fd5b602002602001015161ffff1614156139fe5760405162461bcd60e51b815260206004820152601060248201526f323ab83634b1b0ba3290373ab6b132b960811b6044820152606401610631565b80613a08816152ec565b915050613954565b505b5080613a1d816152ec565b915050613778565b505050565b6040516001600160a01b03808516602483015283166044820152606481018290526115bc9085906323b872dd60e01b906084015b60408051601f198184030181529190526020810180516001600160e01b03166001600160e01b031990931692909217909152613e88565b6040516001600160a01b038316602482015260448101829052613a2590849063a9059cbb60e01b90606401613a5e565b60606000613ad5600460016150e6565b60ff166001600160401b03811115613afd57634e487b7160e01b600052604160045260246000fd5b604051908082528060200260200182016040528015613b26578160200160208202803683370190505b50600a54909150600090600160a01b900461ffff166001600160401b03811115613b6057634e487b7160e01b600052604160045260246000fd5b604051908082528060200260200182016040528015613b89578160200160208202803683370190505b50905060005b600a5461ffff600160a01b90910481169082161015613bfc57613bb38160016150a8565b828261ffff1681518110613bd757634e487b7160e01b600052603260045260246000fd5b61ffff9092166020928302919091019091015280613bf4816152ca565b915050613b8f565b5060008060018351613c0e919061524d565b90505b8015613d2a576000818783604051602001613c36929190918252602082015260400190565b6040516020818303038152906040528051906020012060001c613c599190615328565b9050838281518110613c7b57634e487b7160e01b600052603260045260246000fd5b60200260200101519250838181518110613ca557634e487b7160e01b600052603260045260246000fd5b6020026020010151848381518110613ccd57634e487b7160e01b600052603260045260246000fd5b602002602001019061ffff16908161ffff168152505082848281518110613d0457634e487b7160e01b600052603260045260246000fd5b61ffff909216602092830291909101909101525080613d22816152b3565b915050613c11565b5060005b6004811015613da457828181518110613d5757634e487b7160e01b600052603260045260246000fd5b6020026020010151848281518110613d7f57634e487b7160e01b600052603260045260246000fd5b61ffff9092166020928302919091019091015280613d9c816152ec565b915050613d2e565b50600a54613dbd90600160b01b900461ffff1686615307565b613dc89060016150a8565b83600460ff1681518110613dec57634e487b7160e01b600052603260045260246000fd5b61ffff9092166020928302919091019091015250909392505050565b80600854613e1691906150ce565b60085550565b600554600254613e3a916001600160a01b0391821691166000613f5a565b600554600254613e57916001600160a01b03918216911683613f5a565b60055460405163ce3f865f60e01b8152600481018390526001600160a01b039091169063ce3f865f90602401610bdb565b6000613edd826040518060400160405280602081526020017f5361666545524332303a206c6f772d6c6576656c2063616c6c206661696c6564815250856001600160a01b031661407e9092919063ffffffff16565b805190915015613a255780806020019051810190613efb91906145c2565b613a255760405162461bcd60e51b815260206004820152602a60248201527f5361666545524332303a204552433230206f7065726174696f6e20646964206e6044820152691bdd081cdd58d8d9595960b21b6064820152608401610631565b801580613fe35750604051636eb1769f60e11b81523060048201526001600160a01b03838116602483015284169063dd62ed3e9060440160206040518083038186803b158015613fa957600080fd5b505afa158015613fbd573d6000803e3d6000fd5b505050506040513d601f19601f82011682018060405250810190613fe191906145e2565b155b61404e5760405162461bcd60e51b815260206004820152603660248201527f5361666545524332303a20617070726f76652066726f6d206e6f6e2d7a65726f60448201527520746f206e6f6e2d7a65726f20616c6c6f77616e636560501b6064820152608401610631565b6040516001600160a01b038316602482015260448101829052613a2590849063095ea7b360e01b90606401613a5e565b606061408d8484600085614097565b90505b9392505050565b6060824710156140f85760405162461bcd60e51b815260206004820152602660248201527f416464726573733a20696e73756666696369656e742062616c616e636520666f6044820152651c8818d85b1b60d21b6064820152608401610631565b843b6141465760405162461bcd60e51b815260206004820152601d60248201527f416464726573733a2063616c6c20746f206e6f6e2d636f6e74726163740000006044820152606401610631565b600080866001600160a01b0316858760405161416291906148d0565b60006040518083038185875af1925050503d806000811461419f576040519150601f19603f3d011682016040523d82523d6000602084013e6141a4565b606091505b50915091506141b48282866141bf565b979650505050505050565b606083156141ce575081614090565b8251156141de5782518084602001fd5b8160405162461bcd60e51b8152600401610631919061497e565b828054828255906000526020600020908101928215614233579160200282015b82811115614233578235825591602001919060010190614218565b5061423f92915061436f565b5090565b604080516101208101909152600080825260208201908152602001600081526020016000815260200160608152602001600081526020016000815260200160608152602001606081525090565b82805482825590600052602060002090600f016010900481019282156142335791602002820160005b838211156142f957835183826101000a81548161ffff021916908361ffff16021790555092602001926002016020816001010492830192600103026142b9565b80156143275782816101000a81549061ffff02191690556002016020816001010492830192600103026142f9565b505061423f92915061436f565b828054828255906000526020600020908101928215614233579160200282015b82811115614233578251825591602001919060010190614354565b5b8082111561423f5760008155600101614370565b60008083601f840112614395578182fd5b5081356001600160401b038111156143ab578182fd5b6020830191508360208260051b85010111156143c657600080fd5b9250929050565b803560ff811681146143de57600080fd5b919050565b6000602082840312156143f4578081fd5b81356140908161537e565b600060208284031215614410578081fd5b81516140908161537e565b60008060008060008060c08789031215614433578182fd5b863561443e8161537e565b9550602087013561444e8161537e565b9450604087013561445e8161537e565b9350606087013561446e8161537e565b9250608087013561447e8161537e565b915060a087013561448e8161537e565b809150509295509295509295565b600060208083850312156144ae578182fd5b82516001600160401b038111156144c3578283fd5b8301601f810185136144d3578283fd5b80516144e66144e182615085565b615055565b80828252848201915084840188868560051b8701011115614505578687fd5b8694505b8385101561453057805161451c81615396565b835260019490940193918501918501614509565b50979650505050505050565b6000602080838503121561454e578182fd5b82516001600160401b03811115614563578283fd5b8301601f81018513614573578283fd5b80516145816144e182615085565b80828252848201915084840188868560051b87010111156145a0578687fd5b8694505b838510156145305780518352600194909401939185019185016145a4565b6000602082840312156145d3578081fd5b81518015158114614090578182fd5b6000602082840312156145f3578081fd5b5051919050565b60008060008060008060a08789031215614612578182fd5b863561461d81615396565b9550602087013561462d81615396565b945060408701356001600160401b03811115614647578283fd5b61465389828a01614384565b979a9699509760608101359660809091013595509350505050565b60006020828403121561467f578081fd5b5035919050565b60008060008060006080868803121561469d578283fd5b8535945060208601356146af8161537e565b93506146bd604087016143cd565b925060608601356001600160401b038111156146d7578182fd5b6146e388828901614384565b969995985093965092949392505050565b600080600060408486031215614708578081fd5b8335925060208401356001600160401b03811115614724578182fd5b61473086828701614384565b9497909650939450505050565b600080600060608486031215614751578081fd5b505081359360208301359350604090920135919050565b6000806040838503121561477a578182fd5b50508035926020909101359150565b6000806000806060858703121561479e578182fd5b843593506147ae602086016143cd565b925060408501356001600160401b038111156147c8578283fd5b6147d487828801614384565b95989497509550505050565b600080604083850312156147f2578182fd5b6147fb836143cd565b946020939093013593505050565b81835260006020808501945082825b8581101561484157813561482b81615396565b61ffff1687529582019590820190600101614818565b509495945050505050565b6000815180845260208085019450808401835b8381101561484157815161ffff168752958201959082019060010161485f565b6000815180845260208085019450808401835b8381101561484157815187529582019590820190600101614892565b600481106148cc57634e487b7160e01b600052602160045260246000fd5b9052565b600082516148e2818460208701615287565b9190910192915050565b60018060a01b038716815285602082015260ff8516604082015261ffff8416606082015260a06080820152600061492760a083018486614809565b98975050505050505050565b602081526000610826602083018461487f565b606081526000614959606083018761487f565b828103602084015261496c818688614809565b91505082604083015295945050505050565b602081526000825180602084015261499d816040850160208701615287565b601f01601f19169190910160400192915050565b6020808252601a908201527f70726f787920636f6e7472616374206e6f7420616c6c6f776564000000000000604082015260600190565b6020808252600f908201526e27b7363c9031b7b73a3937b63632b960891b604082015260600190565b6020808252601b908201527f496e76616c69642074696d6520666f72206d696e743a73746172740000000000604082015260600190565b60208082526019908201527f496e76616c69642074696d6520666f72206d696e743a656e6400000000000000604082015260600190565b6020808252601290820152711b9bc81b1bdd1d195c9e4818dc99585d195960721b604082015260600190565b6020808252601d908201527f436f6e7472616374732063616e6e6f7420626520302061646472657373000000604082015260600190565b6020808252818101527f4f776e61626c653a2063616c6c6572206973206e6f7420746865206f776e6572604082015260600190565b60208082526014908201527318dbdb9d1c9858dd081b9bdd08185b1b1bddd95960621b604082015260600190565b60208082526029908201527f43616e6e6f74207365742077696e6e696e67206e756d6265727320647572696e60408201526867206c6f747465727960b81b606082015260800190565b6020808252601a908201527f5468697320636f6e747261637420776173207570677261646564000000000000604082015260600190565b602081528151602082015260006020830151614be460408401826148ae565b50604083015160608301526060830151608083015260808301516101208060a0850152614c1561014085018361487f565b915060a085015160c085015260c085015160e085015260e0850151601f19610100818786030181880152614c49858461484c565b908801518782039092018488015293509050612172838261487f565b600060a0820161ffff808916845260208189168186015260a06040860152829150875480845260c0860192508885528185209350845b81811015614cb757845484526001948501949383019301614c9b565b50505060608401959095525050608001529392505050565b60006060808301868452602061ffff8088168287015260408481880152838854614cfd818790815260200190565b60008b81526020902096509150875b81600f82011015614e4d57865461ffff868216168452614d36878501878360101c1661ffff169052565b61ffff81881c87161684860152614d57898501878360301c1661ffff169052565b6080614d6c8186018884891c1661ffff169052565b60a0614d82818701898560501c1661ffff169052565b60c0614d978188018a868f1c1661ffff169052565b60e0614dad8189018b8760701c1661ffff169052565b61ffff85851c8b1616610100890152614dd261012089018b8760901c1661ffff169052565b61ffff85841c8b1616610140890152614df761016089018b8760b01c1661ffff169052565b61ffff85831c8b1616610180890152614e1c6101a089018b8760d01c1661ffff169052565b84901c891661ffff166101c088015250505060f01c6101e08401526001969096019561020090920191601001614d0c565b95549581811015614e695761ffff878616168352918501916001015b81811015614e8b57614e8383868960101c1661ffff169052565b918501916001015b81811015614ea65761ffff87871c8616168352918501916001015b81811015614ec857614ec083868960301c1661ffff169052565b918501916001015b81811015614ee35761ffff87851c8616168352918501916001015b81811015614f0557614efd83868960501c1661ffff169052565b918501916001015b81811015614f205761ffff87891c8616168352918501916001015b81811015614f4257614f3a83868960701c1661ffff169052565b918501916001015b81811015614f6457614f5c83868960801c1661ffff169052565b918501916001015b81811015614f8657614f7e83868960901c1661ffff169052565b918501916001015b81811015614fa857614fa083868960a01c1661ffff169052565b918501916001015b81811015614fca57614fc283868960b01c1661ffff169052565b918501916001015b81811015614fec57614fe483868960c01c1661ffff169052565b918501916001015b8181101561500e5761500683868960d01c1661ffff169052565b918501916001015b818110156150305761502883868960e01c1661ffff169052565b918501916001015b818110156150445760f087901c8352918501915b50909b9a5050505050505050505050565b604051601f8201601f191681016001600160401b038111828210171561507d5761507d615368565b604052919050565b60006001600160401b0382111561509e5761509e615368565b5060051b60200190565b600061ffff8083168185168083038211156150c5576150c561533c565b01949350505050565b600082198211156150e1576150e161533c565b500190565b600060ff821660ff84168060ff038211156151035761510361533c565b019392505050565b60008261511a5761511a615352565b500490565b600181815b8085111561515a5781600019048211156151405761514061533c565b8085161561514d57918102915b93841c9390800290615124565b509250929050565b600061082660ff84168360008261517b57506001610829565b8161518857506000610829565b816001811461519e57600281146151a8576151c4565b6001915050610829565b60ff8411156151b9576151b961533c565b50506001821b610829565b5060208310610133831016604e8410600b84101617156151e7575081810a610829565b6151f1838361511f565b80600019048211156152055761520561533c565b029392505050565b60008160001904831182151516156152275761522761533c565b500290565b600060ff821660ff84168160ff04811182151516156152055761520561533c565b60008282101561525f5761525f61533c565b500390565b600060ff821660ff84168082101561527e5761527e61533c565b90039392505050565b60005b838110156152a257818101518382015260200161528a565b838111156115bc5750506000910152565b6000816152c2576152c261533c565b506000190190565b600061ffff808316818114156152e2576152e261533c565b6001019392505050565b60006000198214156153005761530061533c565b5060010190565b600061ffff8084168061531c5761531c615352565b92169190910692915050565b60008261533757615337615352565b500690565b634e487b7160e01b600052601160045260246000fd5b634e487b7160e01b600052601260045260246000fd5b634e487b7160e01b600052604160045260246000fd5b6001600160a01b038116811461539357600080fd5b50565b61ffff8116811461539357600080fdfea26469706673582212205c5ac17f7a86c5539b08a639a025de248dd535c0830d10a2df66414771dff8d664736f6c63430008040033",
  "devdoc": {
    "kind": "dev",
    "methods": {
      "_prizeForMatching(uint8,uint256)": {
        "params": {
          "_lotteryId": ": The ID of the lottery the user is claiming on",
          "_noOfMatching": ": The number of matching numbers the user has"
        },
        "returns": {
          "prize": " The prize amount in cake the user is entitled to"
        }
      },
      "getCurrentTime()": {
        "returns": {
          "_0": "uint for the current Testable timestamp."
        }
      },
      "owner()": {
        "details": "Returns the address of the current owner."
      },
      "renounceOwnership()": {
        "details": "Leaves the contract without owner. It will not be possible to call `onlyOwner` functions anymore. Can only be called by the current owner. NOTE: Renouncing ownership will leave the contract without an owner, thereby removing any functionality that is only available to the owner."
      },
      "setCurrentTime(uint256)": {
        "details": "Will revert if not running in test mode.",
        "params": {
          "time": "timestamp to set current Testable time to."
        }
      },
      "transferOwnership(address)": {
        "details": "Transfers ownership of the contract to a new account (`newOwner`). Can only be called by the current owner."
      },
      "updateLottoSettings(uint16,uint16,uint256[],uint256,uint256)": {
        "params": {
          "_prizeDistribution": "An array defining the distribution of the          prize pool. I.e if a lotto has 5 numbers, the distribution could          be [5, 10, 15, 20, 30] = 100%. This means if you get one number          right you get 5% of the pool, 2 matching would be 10% and so on."
        }
      }
    },
    "version": 1
  },
  "userdoc": {
    "kind": "user",
    "methods": {
      "getCurrentTime()": {
        "notice": "Gets the current time. Will return the last time set in `setCurrentTime` if running in test mode. Otherwise, it will return the block timestamp."
      },
      "manualStartLotto(uint256,uint256)": {
        "notice": "manually start by admin, by pass auto duration"
      },
      "setCurrentTime(uint256)": {
        "notice": "Sets the current time."
      }
    },
    "version": 1
  },
  "storageLayout": {
    "storage": [
      {
        "astId": 317,
        "contract": "contracts/Lottery.sol:Lottery",
        "label": "_owner",
        "offset": 0,
        "slot": "0",
        "type": "t_address"
      },
      {
        "astId": 269,
        "contract": "contracts/Lottery.sol:Lottery",
        "label": "_initialized",
        "offset": 20,
        "slot": "0",
        "type": "t_bool"
      },
      {
        "astId": 272,
        "contract": "contracts/Lottery.sol:Lottery",
        "label": "_initializing",
        "offset": 21,
        "slot": "0",
        "type": "t_bool"
      },
      {
        "astId": 7714,
        "contract": "contracts/Lottery.sol:Lottery",
        "label": "timerAddress",
        "offset": 0,
        "slot": "1",
        "type": "t_address"
      },
      {
        "astId": 2937,
        "contract": "contracts/Lottery.sol:Lottery",
        "label": "iron_",
        "offset": 0,
        "slot": "2",
        "type": "t_contract(IERC20)2215"
      },
      {
        "astId": 2940,
        "contract": "contracts/Lottery.sol:Lottery",
        "label": "ticket_",
        "offset": 0,
        "slot": "3",
        "type": "t_contract(ITicket)7245"
      },
      {
        "astId": 2943,
        "contract": "contracts/Lottery.sol:Lottery",
        "label": "randomGenerator_",
        "offset": 0,
        "slot": "4",
        "type": "t_contract(IRandomNumberGenerator)7166"
      },
      {
        "astId": 2946,
        "contract": "contracts/Lottery.sol:Lottery",
        "label": "taxService_",
        "offset": 0,
        "slot": "5",
        "type": "t_contract(ITaxService)7175"
      },
      {
        "astId": 2948,
        "contract": "contracts/Lottery.sol:Lottery",
        "label": "requestId_",
        "offset": 0,
        "slot": "6",
        "type": "t_bytes32"
      },
      {
        "astId": 2950,
        "contract": "contracts/Lottery.sol:Lottery",
        "label": "lotteryIdCounter_",
        "offset": 0,
        "slot": "7",
        "type": "t_uint256"
      },
      {
        "astId": 2958,
        "contract": "contracts/Lottery.sol:Lottery",
        "label": "unclaimedPrize_",
        "offset": 0,
        "slot": "8",
        "type": "t_uint256"
      },
      {
        "astId": 2960,
        "contract": "contracts/Lottery.sol:Lottery",
        "label": "controller_",
        "offset": 0,
        "slot": "9",
        "type": "t_address"
      },
      {
        "astId": 2962,
        "contract": "contracts/Lottery.sol:Lottery",
        "label": "zap_",
        "offset": 0,
        "slot": "10",
        "type": "t_address"
      },
      {
        "astId": 2964,
        "contract": "contracts/Lottery.sol:Lottery",
        "label": "maxValidRange_",
        "offset": 20,
        "slot": "10",
        "type": "t_uint16"
      },
      {
        "astId": 2966,
        "contract": "contracts/Lottery.sol:Lottery",
        "label": "powerBallRange_",
        "offset": 22,
        "slot": "10",
        "type": "t_uint16"
      },
      {
        "astId": 2968,
        "contract": "contracts/Lottery.sol:Lottery",
        "label": "startingPrize_",
        "offset": 0,
        "slot": "11",
        "type": "t_uint256"
      },
      {
        "astId": 2970,
        "contract": "contracts/Lottery.sol:Lottery",
        "label": "costPerTicket_",
        "offset": 0,
        "slot": "12",
        "type": "t_uint256"
      },
      {
        "astId": 2973,
        "contract": "contracts/Lottery.sol:Lottery",
        "label": "prizeDistribution_",
        "offset": 0,
        "slot": "13",
        "type": "t_array(t_uint256)dyn_storage"
      },
      {
        "astId": 2975,
        "contract": "contracts/Lottery.sol:Lottery",
        "label": "taxRate_",
        "offset": 0,
        "slot": "14",
        "type": "t_uint256"
      },
      {
        "astId": 2977,
        "contract": "contracts/Lottery.sol:Lottery",
        "label": "prizeReservePool_",
        "offset": 0,
        "slot": "15",
        "type": "t_address"
      },
      {
        "astId": 2982,
        "contract": "contracts/Lottery.sol:Lottery",
        "label": "allLotteries_",
        "offset": 0,
        "slot": "16",
        "type": "t_mapping(t_uint256,t_struct(LottoInfo)2934_storage)"
      },
      {
        "astId": 2985,
        "contract": "contracts/Lottery.sol:Lottery",
        "label": "defaultDuration_",
        "offset": 0,
        "slot": "17",
        "type": "t_uint256"
      },
      {
        "astId": 2988,
        "contract": "contracts/Lottery.sol:Lottery",
        "label": "upgraded_",
        "offset": 0,
        "slot": "18",
        "type": "t_bool"
      }
    ],
    "types": {
      "t_address": {
        "encoding": "inplace",
        "label": "address",
        "numberOfBytes": "20"
      },
      "t_array(t_uint16)dyn_storage": {
        "base": "t_uint16",
        "encoding": "dynamic_array",
        "label": "uint16[]",
        "numberOfBytes": "32"
      },
      "t_array(t_uint256)dyn_storage": {
        "base": "t_uint256",
        "encoding": "dynamic_array",
        "label": "uint256[]",
        "numberOfBytes": "32"
      },
      "t_bool": {
        "encoding": "inplace",
        "label": "bool",
        "numberOfBytes": "1"
      },
      "t_bytes32": {
        "encoding": "inplace",
        "label": "bytes32",
        "numberOfBytes": "32"
      },
      "t_contract(IERC20)2215": {
        "encoding": "inplace",
        "label": "contract IERC20",
        "numberOfBytes": "20"
      },
      "t_contract(IRandomNumberGenerator)7166": {
        "encoding": "inplace",
        "label": "contract IRandomNumberGenerator",
        "numberOfBytes": "20"
      },
      "t_contract(ITaxService)7175": {
        "encoding": "inplace",
        "label": "contract ITaxService",
        "numberOfBytes": "20"
      },
      "t_contract(ITicket)7245": {
        "encoding": "inplace",
        "label": "contract ITicket",
        "numberOfBytes": "20"
      },
      "t_enum(Status)2911": {
        "encoding": "inplace",
        "label": "enum Lottery.Status",
        "numberOfBytes": "1"
      },
      "t_mapping(t_uint256,t_struct(LottoInfo)2934_storage)": {
        "encoding": "mapping",
        "key": "t_uint256",
        "label": "mapping(uint256 => struct Lottery.LottoInfo)",
        "numberOfBytes": "32",
        "value": "t_struct(LottoInfo)2934_storage"
      },
      "t_struct(LottoInfo)2934_storage": {
        "encoding": "inplace",
        "label": "struct Lottery.LottoInfo",
        "members": [
          {
            "astId": 2913,
            "contract": "contracts/Lottery.sol:Lottery",
            "label": "lotteryID",
            "offset": 0,
            "slot": "0",
            "type": "t_uint256"
          },
          {
            "astId": 2916,
            "contract": "contracts/Lottery.sol:Lottery",
            "label": "lotteryStatus",
            "offset": 0,
            "slot": "1",
            "type": "t_enum(Status)2911"
          },
          {
            "astId": 2918,
            "contract": "contracts/Lottery.sol:Lottery",
            "label": "prizePool",
            "offset": 0,
            "slot": "2",
            "type": "t_uint256"
          },
          {
            "astId": 2920,
            "contract": "contracts/Lottery.sol:Lottery",
            "label": "costPerTicket",
            "offset": 0,
            "slot": "3",
            "type": "t_uint256"
          },
          {
            "astId": 2923,
            "contract": "contracts/Lottery.sol:Lottery",
            "label": "prizeDistribution",
            "offset": 0,
            "slot": "4",
            "type": "t_array(t_uint256)dyn_storage"
          },
          {
            "astId": 2925,
            "contract": "contracts/Lottery.sol:Lottery",
            "label": "startingTimestamp",
            "offset": 0,
            "slot": "5",
            "type": "t_uint256"
          },
          {
            "astId": 2927,
            "contract": "contracts/Lottery.sol:Lottery",
            "label": "closingTimestamp",
            "offset": 0,
            "slot": "6",
            "type": "t_uint256"
          },
          {
            "astId": 2930,
            "contract": "contracts/Lottery.sol:Lottery",
            "label": "winningNumbers",
            "offset": 0,
            "slot": "7",
            "type": "t_array(t_uint16)dyn_storage"
          },
          {
            "astId": 2933,
            "contract": "contracts/Lottery.sol:Lottery",
            "label": "winners",
            "offset": 0,
            "slot": "8",
            "type": "t_array(t_uint256)dyn_storage"
          }
        ],
        "numberOfBytes": "288"
      },
      "t_uint16": {
        "encoding": "inplace",
        "label": "uint16",
        "numberOfBytes": "2"
      },
      "t_uint256": {
        "encoding": "inplace",
        "label": "uint256",
        "numberOfBytes": "32"
      }
    }
  }
}